S0120000536D6172745F486F6D652E7372656323
S11300000C9431000C94400C0C94690C0C94920CDC
S11300100C944E000C944E000C944E000C94E70D7E
S11300200C944E000C94B10D0C94180D0C94DD0C32
S11300300C944E000C944E000C944E000C944E0004
S11300400C944E000C944E000C944E000C944E00F4
S11300500C944E002A086408740877088A088D08EE
S1130060900811241FBECFE5D8E0DEBFCDBF16E057
S1130070A0E6B0E0E8EDF6E202C005900D92A438E7
S1130080B107D9F726E0A4E8B6E001C01D92AA3969
S1130090B207E1F70E945A0A0C946A130C94000008
S11300A0DC0190E011C0292F30E0FD01E20FF31FC5
S11300B05081FB01E20FF31F2081521309C0552325
S11300C049F0222349F09F5F941768F381E0089573
S11300D080E0089581E0089581E008951F93CF930F
S11300E0DF93CDB7DEB760970FB6F894DEBF0FBECF
S11300F0CDBF19821A821B821C821D821E821F821E
S1130100188644E0BE01675F7F4F80E090E00E9464
S1130110D90344E0BE01635F7F4F84E090E00E9416
S1130120D90310E03AC080E790E00E94C10ECE01EE
S113013001960E94D70E0E94F00E44E0BE01675F54
S11301407F4FCE0101960E9450008823F9F087E882
S113015090E00E94C10ECE0105960E94D70E0E9427
S1130160F00E44E0BE01635F7F4FCE0105960E940E
S11301705000882349F08EE990E00E94C10E0E944D
S1130180F00E0E94F80715C01F5F07C08FEA90E0C9
S11301900E94C10E0E94F00E1F5F133020F2133034
S11301A041F488EC90E00E94C10E0E94F00E0E947F
S11301B09B0760960FB6F894DEBF0FBECDBFDF91EC
S11301C0CF911F910895CF93DF93CDB7DEB72897D2
S11301D00FB6F894DEBF0FBECDBF19821A821B8200
S11301E01C821D821E821F82188664E876E085EFD9
S11301F091E00E94810380918406811132C061E004
S113020085EF91E00E94630385EF90E00E94C10EA8
S1130210CE0101960E94D70E0E94F00E44E0BE016A
S11302206F5F7F4F80E090E00E94A9038AE091E035
S11302300E94C10ECE0105960E94D70E0E94F00EB8
S113024044E0BE016B5F7F4F84E090E00E94A9030D
S11302508FE191E00E94C10E0E94F00E0E946E0098
S113026008C082E391E00E94C10E0E94F00E0E9439
S11302706E0028960FB6F894DEBF0FBECDBFDF9197
S1130280CF910895CF93DF9300D0CDB7DEB71A8214
S1130290198283E491E00E94C10E2FEF83ED90E375
S11302A0215080409040E1F700C000000E94F00E11
S11302B08FE491E00E94C10ECE0101960E94B90E16
S11302C00E94F00E89819A818133910519F40E946C
S11302D0E30018C0C29719F40E946E0013C00E9474
S11302E0F00E80E791E00E94C10E0E94F00E2FEF05
S11302F083ED90E3215080409040E1F700C000007E
S11303000E9442010F900F90DF91CF9108950F93B7
S11303101F93CF93DF93CDB7DEB728970FB6F8942A
S1130320DEBF0FBECDBF19821A821B821C821D82C2
S11303301E821F82188665E876E084EF91E00E94B1
S1130340810380918506863058F060E084EF91E067
S11303500E9463038FE19EE40197F1F700C000005F
S113036080918506853068F083E891E00E94C10E93
S11303700E94F00E87E991E00E94C10E0E94F00EE7
S113038054C081EB91E00E94C10ECE0101960E94FF
S1130390D70E0E94F00E87EC91E00E94C10ECE01B0
S11303A005960E94D70E0E94F00E209185062F5FBD
S11303B02093850630E0C9010196295F3F4F8901EA
S11303C0000F111F000F111F44E0BE016F5F7F4F2C
S11303D0880F991F880F991F0E94A9038FE19EE43B
S11303E00197F1F700C0000044E0BE016B5F7F4F4E
S11303F0C8010E94A9038FE19EE40197F1F700C0B0
S113040000006091850684EF91E00E9463038FE110
S11304109EE40197F1F700C000008DED91E00E9489
S1130420C10E0E94F00E0E94F80728960FB6F894A9
S1130430DEBF0FBECDBFDF91CF911F910F91089505
S1130440CF92DF92FF920F931F93CF93DF93CDB799
S1130450DEB760970FB6F894DEBF0FBECDBF86EF50
S113046091E00E94C10ECE0101960E94D70E0E9417
S1130470F00E65E876E084EF91E00E9481038091BC
S1130480850681117BC087E092E00E94C10E0E9424
S1130490F00E81C044E0BE016B5F7F4F802F90E07F
S11304A00E94D90344E0BE016B5F7F4FCE010196E9
S11304B00E945000813009F05EC0FF24F394F10ED5
S11304C041C0C02ED12C0F2D10E0000F111F000FC2
S11304D0111F0C0D1D1D44E0BE01635F7F4FC80159
S11304E00E94D9038FE19EE40197F1F700C0000058
S11304F044E0BE01675F7F4FC80148960E94D9035C
S11305008FE19EE40197F1F700C0000044E0BE01D2
S1130510635F7F4FC6010E94A9038FE19EE40197A8
S1130520F1F700C0000044E0BE01675F7F4FC601E1
S113053048960E94A9038FE19EE40197F1F700C059
S11305400000F39460918506F61608F4BACF615062
S11305506093850684EF91E00E9463038FE19EE43B
S11305600197F1F700C0000087E192E00E94C10EFC
S11305700E94F00E10C00C5F1F5F02C010E008E084
S113058080918506181708F485CF82E392E00E94D3
S1130590C10E0E94F00E60960FB6F894DEBF0FBE37
S11305A0CDBFDF91CF911F910F91FF90DF90CF903E
S11305B0089541E00E94A80A089541E00E941E0B9C
S11305C0089540E00E941E0B0895813019F0823096
S11305D089F0089541E063E082E00E94A80A41E0C6
S11305E064E082E00E94A80A41E064E083E00E94A3
S11305F0A80A089541E065E082E00E94A80A41E06B
S113060066E082E00E94A80A41E065E083E00E947F
S1130610A80A0895813019F0823009F108956130F3
S113062019F0623061F015C041E063E082E00E949D
S11306301E0B40E064E082E00E941E0B0AC040E012
S113064063E082E00E941E0B41E064E082E00E94CD
S11306501E0B41E064E083E00E941E0B08956130AC
S113066019F0623061F015C041E065E082E00E945B
S11306701E0B40E066E082E00E941E0B0AC040E0D0
S113068065E082E00E941E0B41E066E082E00E9489
S11306901E0B41E065E083E00E941E0B089581304B
S11306A019F0823039F0089540E064E083E00E945C
S11306B01E0B089540E065E083E00E941E0B089540
S11306C00E94190E08951F93CF93DF93D82FC62F3E
S11306D0192F10650E94250E812F0E94480E8D2F20
S11306E00E94720E8C2F0E94720E0E94410E8FE1A6
S11306F09EE40197F1F700C00000DF91CF911F91B4
S113070008950F931F93CF93DF9361157105E1F063
S11307108B01D82FC92FC0650E94250E8C2F0E94F3
S1130720480E8D2F0E94720E0E94330E8C2F0E9451
S11307305D0EC8010E94940E0E94410E8FE19EE45A
S11307400197F1F700C00000DF91CF911F910F9145
S11307500895FF920F931F93CF93DF936115710553
S113076011F1413100F5D42F8B01F82EC92FC0654A
S11307700E94250E8C2F0E94480E8F2D0E94720E0F
S1130780C0E007C0F801EC0FF11D80810E94720ED9
S1130790CF5FCD17B8F30E94410E8FE19EE401971D
S11307A0F1F700C00000DF91CF911F910F91FF90EE
S11307B00895FF920F931F93CF93DF9361157105F3
S11307C089F1413178F5D42F8B01F82EC92FC065FA
S11307D00E94250E8C2F0E94480E8F2D0E94720EAF
S11307E00E94330E8C2F0E945D0EC0E006C0C8012B
S11307F08C0F911D0E947E0ECF5F2C2F30E08D2F29
S113080090E001972817390794F3C8018C0F911DC4
S11308100E94940E0E94410E8FE19EE40197F1F72D
S113082000C00000DF91CF911F910F91FF900895B8
S113083041E064E081E00E94A80A41E065E081E0D3
S11308400E94A80A41E066E081E00E94A80A41E013
S113085067E081E00E94A80A40E063E082E00E9431
S1130860A80A40E064E082E00E94A80A40E065E053
S113087082E00E94A80A40E066E082E00E94A80AA2
S113088063E082E00E94080C64E082E00E94080CAD
S113089065E082E00E94080C66E082E00E94080C99
S11308A008958F929F92AF92BF92CF92DF92EF9270
S11308B0FF920F931F93CF93DF93CDB7DEB7A1972A
S11308C00FB6F894DEBF0FBECDBF81E089838A8363
S11308D08B838C8334E03D8325E02E8396E09F83D5
S11308E087E0888782E089878A878B878C8783E083
S11308F08D873E872F87988B80E1E0E6F0E0DE016C
S1130900519601900D928A95E1F7A12C54C0CA2CFE
S1130910D12CE5E0F0E0EC0FFD1FEC0DFD1D908007
S1130920E1E0F0E0EC0FFD1FEC0DFD1D808040E0E8
S1130930692D882D0E941E0B10E035C0E12EF12C8C
S1130940EDE0F0E0EC0FFD1FEE0DFF1D0081E9E08E
S1130950F0E0EC0FFD1FEE0DFF1DB080AE014F5D0A
S11309605F4F602F8B2D0E94CD0B89A181111AC07E
S113097007C0AE014F5D5F4F602F8B2D0E94CD0BE2
S113098089A18823B1F3EE0CFF1CEE0CFF1C81E05F
S113099090E08C0F9D1FE80EF91EF701EC0DFD1D74
S11309A080890EC01F5F143048F241E0692D882D04
S11309B00E941E0BA39493E09A1508F0A8CF8FEF22
S11309C0A1960FB6F894DEBF0FBECDBFDF91CF91D5
S11309D01F910F91FF90EF90DF90CF90BF90AF9059
S11309E09F908F900895CF93C82F41E061E081E0FC
S11309F00E941E0B40E062E081E00E941E0BC4FBDB
S1130A00442740F962E083E00E941E0BC5FB4427A3
S1130A1040F963E083E00E941E0BC6FB442740F9C3
S1130A2066E083E00E941E0B4C2F441F4427441FA2
S1130A3067E083E00E941E0B41E060E081E00E94D9
S1130A401E0B8FE99FE00197F1F700C0000040E022
S1130A5060E081E00E941E0B4C2F417062E083E055
S1130A600E941E0BC1FB442740F963E083E00E940F
S1130A701E0BC2FB442740F966E083E00E941E0B74
S1130A80C3FB442740F967E083E00E941E0B41E06A
S1130A9060E081E00E941E0B8FE99FE00197F1F76F
S1130AA000C0000040E060E081E00E941E0BCF9196
S1130AB00895CF93C82F40E061E081E00E941E0BAF
S1130AC040E062E081E00E941E0BC4FB442740F931
S1130AD062E083E00E941E0BC5FB442740F963E0FB
S1130AE083E00E941E0BC6FB442740F966E083E0C6
S1130AF00E941E0B4C2F441F4427441F67E083E0D1
S1130B000E941E0B41E060E081E00E941E0B8FE911
S1130B109FE00197F1F700C0000040E060E081E051
S1130B200E941E0B4C2F417062E083E00E941E0B5A
S1130B30C1FB442740F963E083E00E941E0BC2FB23
S1130B40442740F966E083E00E941E0BC3FB442760
S1130B5040F967E083E00E941E0B41E060E081E021
S1130B600E941E0B8FE99FE00197F1F700C000007F
S1130B7040E060E081E00E941E0BCF91089541E0C7
S1130B8062E083E00E94A80A41E063E083E00E94FF
S1130B90A80A41E066E083E00E94A80A41E067E019
S1130BA083E00E94A80A41E061E081E00E94A80A73
S1130BB041E062E081E00E94A80A41E060E081E057
S1130BC00E94A80A2FE785EB91E0215080409040D5
S1130BD0E1F700C0000040E061E081E00E941E0BEC
S1130BE040E062E081E00E941E0B40E062E083E0AE
S1130BF00E941E0B41E063E083E00E941E0B40E074
S1130C0066E083E00E941E0B40E067E083E00E9400
S1130C101E0B41E060E081E00E941E0B8FE99FE023
S1130C200197F1F700C0000040E060E081E00E941D
S1130C301E0B88E20E94590590EF9A95F1F78FE018
S1130C400E94590520EF2A95F1F781E00E94590589
S1130C508FE39FE10197F1F700C0000086E00E9456
S1130C605905089581E00E9459058FE39FE101979A
S1130C70F1F700C0000008950F931F93CF930097DE
S1130C8029F40CC00E94F304CF5F02C08C01C0E0C1
S1130C90F801EC0FF11D80818111F4CFCF911F91E8
S1130CA00F910895813019F0823049F0089580E859
S1130CB0860F0E94590580EF8A95F1F7089580EC1C
S1130CC0860F0E94590580EF8A95F1F7089541E057
S1130CD00E94A80A08950E94950B089540E060E0E0
S1130CE080E00E94A80A83E00E94610A089580E0DF
S1130CF00E94920A9C01A0E0BAE00E9447139B0163
S1130D00AC01012E1AE056954795379527951A950B
S1130D10D1F7102DADECBCEC0E9447139695879546
S1130D209695879596958795089541E065E083E0CB
S1130D300E94A80A0E94510D0895823079F08330F0
S1130D40C1F0813001F542E350E060E070E080EAF8
S1130D5090E40E946E0D0E94640D089542E350E0F9
S1130D6060E070E080EF90E40E946E0D0E94640DDC
S1130D70089542E350E060E070E080E291E40E9474
S1130D806E0D0E94640D0895833091F128F4813032
S1130D9049F08230D1F008958430E9F1853009F4C6
S1130DA04DC008950E94320662E080E00E946B0606
S1130DB00E94F00E87E492E00E94C10E0E94F00EA1
S1130DC087E492E00E943C0608950E94320663E0A4
S1130DD080E00E946B060E94F00E8DE592E00E9476
S1130DE0C10E0E94F00E8DE592E00E943C0608952B
S1130DF00E94320664E080E00E946B060E94F00EBE
S1130E0085E792E00E94C10E0E94F00E85E792E011
S1130E100E943C0608950E94320665E080E00E942C
S1130E206B060E94F00E82E992E00E94C10E0E94BD
S1130E30F00E82E992E00E943C0608950E94320678
S1130E4066E080E00E946B060E94F00E8BEA92E05E
S1130E500E94C10E0E94F00E8BEA92E00E943C06B2
S1130E6008958053282F30E0C901880F991F220F5D
S1130E70331F220F331F220F331F820F931F0E9431
S1130E80D20C0E94C80C0E94F00E85EC92E00E94E5
S1130E90C10E0E94F00E85EC92E00E943C0608957B
S1130EA083E00E949D060E9432060E94F00E87EEA7
S1130EB092E00E94C10E0E94F00E87EE92E00E9422
S1130EC03C06089582E00E949D060E9432060E941C
S1130ED0F00E84EF92E00E94C10E0E94F00E84EFA7
S1130EE092E00E943C0608950E947706863180F4C1
S1130EF081E00E944F030E94F00E83E093E00E9481
S1130F00C10E0E94F00E83E093E00E943C06089517
S1130F108C3180F061E081E00E940A030E94F00EAF
S1130F208BE093E00E94C10E0E94F00E8BE093E0F0
S1130F300E943C06089567E080E00E94D90267E0C1
S1130F4080E00E94DD022FEF8BE792E92150804080
S1130F509040E1F700C0000067E080E00E94E102F9
S1130F60089562E080E00E94670663E080E00E94EA
S1130F70670664E080E00E94670665E080E00E9406
S1130F80670666E080E00E94670641E063E081E076
S1130F900E94A80A0E94BB0C0E94A40E41E061E0DA
S1130FA083E00E94A80A40E060E083E00E94A80A6F
S1130FB00E9495060E946E0681E00E94E5020E944E
S1130FC0BF050E9418040E9460038FE19EE401970C
S1130FD0F1F700C0000060E070E085EF91E00E944E
S1130FE063038FE19EE40197F1F700C000000895C8
S1130FF0CF93DF9300D000D0CDB7DEB7198284E160
S113100093E00E94C10E0E94F00E84E393E00E94DC
S1131010C10E0E94F00E80E593E00E94C10E0E9472
S1131020F00E8AE693E00E94C10E0E94F00ECE01FB
S113103001960E94B90E0E94F00EE9818E2F90E075
S1131040FC01F197E730F10508F06DC0E65DFF4F54
S11310500C9441138EE793E00E94C10E0E94F00E9F
S113106081E993E00E94C10E0E94F00E8AEA93E0A7
S11310700E94C10E0E94F00ECE0102960E94B90E8B
S11310808A81833399F028F4813341F0823351F01B
S113109018C0843379F0853389F013C081E00E944D
S11310A0C4060FC082E00E94C4060BC083E00E9405
S11310B0C40607C084E00E94C40603C085E00E9401
S11310C0C4060E94F00E35C087EB93E00E94C10E67
S11310D00E94F00ECE0103960E94B90E0E94F00EFB
S11310E08B810E94310725C00E94740722C085EDC0
S11310F093E00E94C10ECE0104960E94B90E8C8129
S1131100813319F40E94500714C0823391F40E9471
S113111062070FC00E9487010CC00E94200209C010
S11311200E944F1006C08EEE93E00E94C10E0E94F2
S1131130F00E0E94F8070F900F900F900F90DF9120
S1131140CF910895CF93DF931F92CDB7DEB7198265
S11311508BE094E00E94C10E0E94F00E87E294E0BE
S11311600E94C10E0E94F00ECE0101960E94B90E9B
S11311700E94F00E81E494E00E943C060E94320634
S113118089E494E00E943C0660E081E00E945206FB
S113119085E394E00E943C068981813349F40E94EE
S11311A032068BE494E00E943C060E94420111C086
S11311B0823349F40E94320684E793E00E943C069D
S11311C00E944F1006C086E594E00E94C10E0E9462
S11311D0F00E0F90DF91CF91089585E694E00E9480
S11311E03C062FEF8DE399E4215080409040E1F7D5
S11311F000C000000E94320680E794E00E943C0692
S113120060E082E00E94520680E894E00E943C067E
S11312102FEF8DE399E4215080409040E1F700C026
S113122000000E94320680E994E00E943C0660E0DF
S113123082E00E94520684E095E00E943C062FEF73
S11312408DE399E4215080409040E1F700C0000014
S11312500E9451048F3FE1F3823309F477C018F4FC
S1131260813341F091C0833309F485C0843309F498
S113127087C08AC00E9432068DE994E00E943C0631
S113128060E082E00E9452068FEA94E00E943C06ED
S11312902FEF8DE399E4215080409040E1F700C0A6
S11312A000000E94320680EA93E00E943C0660E05F
S11312B082E00E9452068EEB94E00E943C062FEFDF
S11312C08DE399E4215080409040E1F700C0000094
S11312D00E9451048F3FE1F38333B9F028F4813342
S11312E041F0823361F023C08433A9F08533C9F01F
S11312F01EC00E94320681E00E94C40627C00E94DC
S1131300320682E00E94C40621C00E94320683E0B5
S11313100E94C4061BC00E94320684E00E94C406D8
S113132015C00E94320685E00E94C4060FC00E94C8
S113133032068AEC94E00E943C062FEF83ED90E3A2
S1131340215080409040E1F700C000000E94320626
S113135087ED94E00E943C0660E082E00E94520621
S113136088EC93E00E943C060E9451048F3FE1F315
S11313700E94310717C00E9432060E94740712C0EF
S11313800E9432060E94A2080E94320689EE94E06E
S11313900E943C0660E082E00E9452068CEF93E0DB
S11313A00E943C060E94ED080895CF93DF9300D07D
S11313B01F92CDB7DEB784E193E00E94C10E0E9474
S11313C0F00E87EF94E00E94C10E0E94F00ECE0151
S11313D001960E94B90E0E94F00E8981823309F4AD
S11313E045C018F4813341F057C0833309F44EC02B
S11313F0843309F44EC050C08EE793E00E94C10EBE
S11314000E94F00E81E993E00E94C10E0E94F00E4A
S11314108AEA93E00E94C10E0E94F00ECE01029669
S11314200E94B90E8A81833399F028F4813341F004
S1131430823351F018C0843379F0853389F013C0B6
S113144081E00E94C4060FC082E00E94C4060BC063
S113145083E00E94C40607C084E00E94C40603C05F
S113146085E00E94C4060E94F00E1CC08EE095E048
S11314700E94C10E0E94F00ECE0103960E94B90E86
S11314800E94F00E8B810E9431070CC00E947407E9
S113149009C00E94A20806C08EEE93E00E94C10E0D
S11314A00E94F00E0E94D5090F900F900F90DF91CB
S11314B0CF9108950E94B1070E94A20880E090E0B5
S11314C00895823029F0833089F08130A9F407C06F
S11314D087B18F7787B987B18F7B87B90DC087B103
S11314E08F7787B987B1806487B906C087B1806870
S11314F087B987B1806487B987B18F7D87B986B191
S11315008F7D86B986B1877F86B986B1846086B9B6
S113151086B1826086B986B1816086B986B18068F9
S113152086B90895803288F497B1907E97B997B1BF
S1131530892B87B986B1806486B9349BFECF86B186
S1131540806186B984B195B1089580E090E00895F2
S1131550843008F072C0683008F06FC0423008F080
S11315606CC0813001F130F08230B1F1833009F484
S11315704CC00895413059F42AB381E090E002C090
S1131580880F991F6A95E2F7822B8ABB08952AB3C4
S113159081E090E002C0880F991F6A95E2F7809578
S11315A082238ABB0895413059F427B381E090E047
S11315B002C0880F991F6A95E2F7822B87BB0895B2
S11315C027B381E090E002C0880F991F6A95E2F783
S11315D08095822387BB0895413059F424B381E078
S11315E090E002C0880F991F6A95E2F7822B84BBB2
S11315F0089524B381E090E002C0880F991F6A9592
S1131600E2F78095822384BB0895413059F421B3D5
S113161081E090E002C0880F991F6A95E2F7822B5F
S113162081BB089521B381E090E002C0880F991F27
S11316306A95E2F78095822381BB0895843008F08F
S113164073C0683008F070C0423008F06DC041309B
S1131650A1F5813089F028F08230C9F0833011F18E
S113166008952BB381E090E002C0880F991F6A951A
S1131670E2F7822B8BBB089528B381E090E002C08F
S1131680880F991F6A95E2F7822B88BB089525B3CA
S113169081E090E002C0880F991F6A95E2F7822BDF
S11316A085BB089522B381E090E002C0880F991FA2
S11316B06A95E2F7822B82BB0895813091F028F07D
S11316C08230D9F0833029F108952BB381E090E082
S11316D002C0880F991F6A95E2F7809582238BBB1D
S11316E0089528B381E090E002C0880F991F6A959D
S11316F0E2F78095822388BB089525B381E090E0CA
S113170002C0880F991F6A95E2F78095822385BBF2
S1131710089522B381E090E002C0880F991F6A9572
S1131720E2F78095822382BB08958430A8F568305F
S113173098F5813089F028F08230C9F0833011F1B6
S113174008952BB381E090E002C0880F991F6A9539
S1131750E2F782278BBB089528B381E090E002C0B2
S1131760880F991F6A95E2F7822788BB089525B3ED
S113177081E090E002C0880F991F6A95E2F7822702
S113178085BB089522B381E090E002C0880F991FC1
S11317906A95E2F7822782BB08958430C0F56830E9
S11317A0B0F54115510599F1813089F028F0823066
S11317B0C9F0833011F1089589B390E002C0959582
S11317C087956A95E2F78170FA018083089586B35C
S11317D090E002C0959587956A95E2F78170FA01C9
S11317E08083089583B390E002C0959587956A95A8
S11317F0E2F78170FA018083089580B390E002C01B
S1131800959587956A95E2F78170FA01808308952A
S11318108430A8F5683098F5813089F028F082305A
S1131820C9F0833011F108952BB381E090E002C038
S1131830880F991F6A95E2F7822B8BBB089528B312
S113184081E090E002C0880F991F6A95E2F7822B2D
S113185088BB089525B381E090E002C0880F991FEA
S11318606A95E2F7822B85BB089522B381E090E06C
S113187002C0880F991F6A95E2F7822B82BB0895F4
S11318801F920F920FB60F9211242F933F934F93F1
S11318905F936F937F938F939F93AF93BF93EF93D4
S11318A0FF93E0918A06F0918B06309709F0099531
S11318B0FF91EF91BF91AF919F918F917F916F9124
S11318C05F914F913F912F910F900FBE0F901F90FA
S11318D018951F920F920FB60F9211242F933F93D6
S11318E04F935F936F937F938F939F93AF93BF9324
S11318F0EF93FF93E0918806F0918906309709F001
S11319000995FF91EF91BF91AF919F918F917F9135
S11319106F915F914F913F912F910F900FBE0F9058
S11319201F9018951F920F920FB60F9211242F93A8
S11319303F934F935F936F937F938F939F93AF9353
S1131940BF93EF93FF93E0918606F091870630975B
S113195009F00995FF91EF91BF91AF919F918F91FC
S11319607F916F915F914F913F912F910F900FBE97
S11319700F901F90189583B7806483BF83B78860E6
S113198083BF83B78F7E83BF83B7806283BF08958D
S113199083B7816083BF83B7826083BF83B78B7F44
S11319A083BF0895853640F4982F80E064E670E0A4
S11319B00E940B1361506CBF08951F920F920FB6D3
S11319C00F9211242F933F934F935F936F937F93C1
S11319D08F939F93AF93BF93EF93FF9380918E0662
S11319E090918F06019690938F0680938E06813D89
S11319F0934069F481E782BF10928F0610928E069D
S1131A00E0919206F0919306309709F00995FF91C1
S1131A10EF91BF91AF919F918F917F916F915F9162
S1131A204F913F912F910F900FBE0F901F901895DB
S1131A301F920F920FB60F9211242F933F934F933F
S1131A405F936F937F938F939F93AF93BF93EF9322
S1131A50FF9380918C0690918D06019690938D064C
S1131A6080938C06803A9F4059F410928D06109210
S1131A708C06E0919006F0919106309709F0099553
S1131A80FF91EF91BF91AF919F918F917F916F9152
S1131A905F914F913F912F910F900FBE0F901F9028
S1131AA018958FB58E7F8FBD8FB582608FBD8EB533
S1131AB088608EBD8EB580618EBD8FB58F7B8FBDE6
S1131AC08FB580688FBD08958EB581608EBD8EB54B
S1131AD082608EBD8EB58B7F8EBD0895CF92DF92CE
S1131AE0EF92FF92CF93DF936B017C01EA0120E038
S1131AF030E048EC52E40E94461118165CF19E0155
S1131B0040E050E060E970ED83E090E00E941F1334
S1131B102150310937BD26BD66B577B56F5F7F4F5C
S1131B2080E090E00E94EC119B01AC01C701B6017A
S1131B300E949E1220E030E048EC52E40E944B11D7
S1131B4020E030E040E85FE30E94D9100E94BD111C
S1131B507BBD6ABDDF91CF91FF90EF90DF90CF9076
S1131B6008951F920F920FB60F9211242F933F9353
S1131B704F935F936F937F938F939F93AF93BF9391
S1131B80EF93FF93809195068F5F80939506843140
S1131B9069F480ED92E19DBD8CBD10929506E091B3
S1131BA09806F0919906309709F00995FF91EF9105
S1131BB0BF91AF919F918F917F916F915F914F9161
S1131BC03F912F910F900FBE0F901F9018951F9269
S1131BD00F920FB60F9211242F933F934F935F935D
S1131BE06F937F938F939F93AF93BF93EF93FF93E1
S1131BF0809194068F5F80939406883249F4109202
S1131C009406E0919606F0919706309709F00995AD
S1131C10FF91EF91BF91AF919F918F917F916F91C0
S1131C205F914F913F912F910F900FBE0F901F9096
S1131C3018958CE080B981B18E7F81B981B18D7F97
S1131C4081B986B7846086BF089586B7806286BFEF
S1131C5086B7806886BF06B607FEFDCF81B1887F50
S1131C608830E1F7089586B7806286BF86B78068BA
S1131C7086BF06B607FEFDCF81B1887F8031E1F7CC
S1131C80089586B7806186BF86B7806886BF089549
S1131C90882394F0880F83B983B18E7F83B986B784
S1131CA08F7D86BF86B7806886BF06B607FEFDCFE8
S1131CB081B1887F8831E1F70895882394F0880FF3
S1131CC083B983B1816083B986B78F7D86BF86B7B8
S1131CD0806886BF06B607FEFDCF81B1887F803459
S1131CE0E1F7089583B986B7806886BF06B607FE14
S1131CF0FDCF81B1887F8832E1F70895FC01892BFB
S1131D0091F096B7906496BF96B7906896BF06B662
S1131D1007FEFDCF91B1987F9035E1F783B18083C1
S1131D2086B78F7B86BF0895FC01892B61F096B737
S1131D30906896BF06B607FEFDCF91B1987F98359F
S1131D40E1F783B1808308958BB18D7F8BB987E6EA
S1131D5089B98AB18B7F8AB986E880BD8AB18860E7
S1131D608AB98AB180618AB908958CB95D9BFECF26
S1131D700895009729F05F9BFECF2CB1FC012083CE
S1131D8008950F931F93CF93009729F40CC00E94DA
S1131D90B50ECF5F02C08C01C0E0F801EC0FF11D5D
S1131DA080818111F4CFCF911F910F910895EF920B
S1131DB0FF921F93CF93DF937C0110E0E701C10FE3
S1131DC0D11DCE010E94B90E8881833211F01F5FAC
S1131DD0F5CF1882DF91CF911F91FF90EF90089576
S1131DE08DE00E94B50E8AE00E94B50E0895DF9240
S1131DF0EF92FF920F931F93CF93DF93CDB7DEB78C
S1131E0062970FB6F894DEBF0FBECDBF19821A8257
S1131E101B821C821D821E821F8218861986BE01A7
S1131E20675F7F4F84EF91E00E9481038FE19EE41E
S1131E300197F1F700C000001985111105C086E370
S1131E4095E00E94C10E1CC11A868BE495E00E94A5
S1131E50C10E0E94F00E89E595E00E94C10E0E9419
S1131E60F00ECE010A960E94B90E0E94F00E1B8657
S1131E701C861D861E861F86188A198A1A8A0F2EAA
S1131E80F3E3EF2EF02D0F2EF3E0DF2EF02DF3C051
S1131E90FE013B9684E0DF01282F1D922A95E9F785
S1131EA03496DF011D928A95E9F78A85813359F4C6
S1131EB08FE695E00E94C10ECE010B960E94D70ECC
S1131EC00E94F00E31C00E94320680E895E00E9424
S1131ED03C0660E070E082E090E00E94520610E070
S1131EE01AC00E9451048F3FB1F08332B1F0EBE08D
S1131EF0F0E0EC0FFD1FE10FF11D808390E00E94E4
S1131F00F3041F5FBFEF23EC89E0B1502040804011
S1131F10E1F700C00000143020F3EBE0F0E0EC0F38
S1131F20FD1FE10FF11D10828A85813361F480E980
S1131F3095E00E94C10ECE010F960E94D70E0E941A
S1131F40F00EF12C71C00E94320681EA95E00E94E5
S1131F503C0660E070E082E090E00E94520610E0EF
S1131F601BC00E9451048F3FB9F08332B9F0EFE0F7
S1131F70F0E0EC0FFD1FE10FF11D80838AE290E099
S1131F800E94F3041F5F9FEFA3ECB9E09150A040BF
S1131F90B040E1F700C00000143018F3EFE0F0E0C7
S1131FA0EC0FFD1FE10FF11D1082CBCF2F2D30E080
S1131FB0C9010296285F3F4F8901000F111F000FCE
S1131FC0111F44E0BE016F5F7F4F880F991F880F78
S1131FD0991F0E94D9038FE19EE40197F1F700C095
S1131FE0000044E0BE016B5F7F4FC8010E94D9032B
S1131FF0AFE1BEE41197F1F700C0000044E0BE0178
S11320006F5F7F4FCE010B960E945000182F44E063
S1132010BE016B5F7F4FCE010F960E9450001123CB
S113202011F081112CC0F3948985F81608F4BECF01
S1132030DA94EA9481EB95E00E94C10E8E2D0E9401
S1132040B50E81EC95E00E94C10E0E94F00E0E9434
S113205032068FEC95E00E943C0660E070E082E07E
S113206090E00E9452068E2D90E00E94F3048DEDC4
S113207095E00E943C06D1100BCF10E001C011E0A6
S1132080812F62960FB6F894DEBF0FBECDBFDF91ED
S1132090CF911F910F91FF90EF90DF9008951F93C0
S11320A0CF93DF931F92CDB7DEB70E94F70E813036
S11320B0A1F58AEE95E00E94C10E0E94F00E0E94E6
S11320C0320687E096E00E943C0689E595E00E948E
S11320D0C10E0E94F00E1982CE0101960E94B90E23
S11320E00E94F00E8981813319F40E94D50902C03F
S11320F00E94ED0889E595E00E943C060E94510487
S1132100182F8F3FD9F30E943206113319F40E941D
S1132110D5094AC00E94ED0847C087E196E00E94B5
S1132120C10E0E94F00E86E296E00E94C10E0E944B
S1132130F00E87E196E00E943C062FEF87EA91E6D5
S1132140215080409040E1F700C0000081E090E021
S11321500E94590587E596E00E943C0660E070E025
S113216082E090E00E94520687E696E00E943C06D8
S11321702FEF83ED90E3215080409040E1F700C0C1
S113218000000E94320682E796E00E943C062FEF90
S113219087EA91E6215080409040E1F700C00000BA
S11321A00E9432060E949B070F90DF91CF911F91EE
S11321B008955058BB27AA270E94F1100C9464126A
S11321C00E94561238F00E945D1220F039F49F3FAD
S11321D019F426F40C9453120EF4E095E7FB0C94D6
S11321E04D12E92F0E94751258F3BA17620773074C
S11321F08407950720F079F4A6F50C9497120EF451
S1132200E0950B2EBA2FA02D0B01B90190010C0102
S1132210CA01A0011124FF27591B99F0593F50F41A
S1132220503E68F11A16F040A22F232F342F442772
S1132230585FF3CF469537952795A795F04053956A
S1132240C9F77EF41F16BA0B620B730B840BBAF03A
S11322509150A1F0FF0FBB1F661F771F881FC2F7A5
S11322600EC0BA0F621F731F841F48F487957795B9
S11322706795B795F7959E3F08F0B0CF9395880F73
S113228008F09927EE0F9795879508950E942912D3
S113229008F481E008950E945F110C9464120E9476
S11322A05D1258F00E94561240F029F45F3F29F065
S11322B00C944D1251110C9498120C9453120E94C8
S11322C0751268F39923B1F3552391F3951B550BBC
S11322D0BB27AA2762177307840738F09F5F5F4FF5
S11322E0220F331F441FAA1FA9F335D00E2E3AF034
S11322F0E0E832D091505040E695001CCAF72BD04C
S1132300FE2F29D0660F771F881FBB1F261737079C
S11323104807AB07B0E809F0BB0B802DBF01FF27CE
S113232093585F4F3AF09E3F510578F00C944D124C
S11323300C9498125F3FE4F3983ED4F38695779516
S11323406795B795F7959F5FC9F7880F911D969587
S1132350879597F90895E1E0660F771F881FBB1FE3
S1132360621773078407BA0720F0621B730B840B90
S1132370BA0BEE1F88F7E09508950E947D1288F04D
S11323809F5798F0B92F9927B751B0F0E1F0660F35
S1132390771F881F991F1AF0BA95C9F714C0B13076
S11323A091F00E949712B1E008950C949712672F50
S11323B0782F8827B85F39F0B93FCCF386957795A5
S11323C06795B395D9F73EF490958095709561958E
S11323D07F4F8F4F9F4F0895E89409C097FB3EF4B9
S11323E090958095709561957F4F8F4F9F4F99235E
S11323F0A9F0F92F96E9BB279395F69587957795DC
S11324006795B795F111F8CFFAF4BB0F11F460FF9B
S11324101BC06F5F7F4F8F4F9F4F16C0882311F0F3
S113242096E911C0772321F09EE8872F762F05C007
S1132430662371F096E8862F70E060E02AF09A95A2
S1132440660F771F881FDAF7880F9695879597F997
S11324500895990F0008550FAA0BE0E8FEEF161631
S11324601706E807F907C0F012161306E407F50784
S113247098F0621B730B840B950B39F40A2661F0F8
S1132480232B242B252B21F408950A2609F4A1409B
S1132490A6958FEF811D811D089597F99F6780E8A8
S11324A070E060E008959FEF80EC089500240A94A2
S11324B01616170618060906089500240A9412161B
S11324C01306140605060895092E0394000C11F44E
S11324D0882352F0BB0F40F4BF2B11F460FF04C0FB
S11324E06F5F7F4F8F4F9F4F089557FD9058440F54
S11324F0551F59F05F3F71F04795880F97FB991F5F
S113250061F09F3F79F0879508951216130614061B
S1132510551FF2CF4695F1DF08C0161617061806A8
S1132520991FF1CF86957105610508940895E89483
S1132530BB2766277727CB0197F908950E94B1122C
S11325400C9464120E94561238F00E945D1220F01E
S1132550952311F00C944D120C94531211240C94E5
S113256098120E94751270F3959FC1F3950F50E075
S1132570551F629FF001729FBB27F00DB11D639F31
S1132580AA27F00DB11DAA1F649F6627B00DA11DD7
S1132590661F829F2227B00DA11D621F739FB00D7D
S11325A0A11D621F839FA00D611D221F749F3327ED
S11325B0A00D611D231F849F600D211D822F762F86
S11325C06A2F11249F5750409AF0F1F088234AF063
S11325D0EE0FFF1FBB1F661F771F881F91505040CF
S11325E0A9F79E3F510580F00C944D120C9498125B
S11325F05F3FE4F3983ED4F3869577956795B79556
S1132600F795E7959F5FC1F7FE2B880F911D96956F
S1132610879597F9089597FB072E16F4009407D031
S113262077FD09D00E94561307FC05D03EF490951F
S113263081959F4F0895709561957F4F0895A1E20C
S11326401A2EAA1BBB1BFD010DC0AA1FBB1FEE1F28
S1132650FF1FA217B307E407F50720F0A21BB30B73
S1132660E40BF50B661F771F881F991F1A9469F7EF
S113267060957095809590959B01AC01BD01CF014B
S11326800895EE0FFF1F0590F491E02D0994A29F89
S1132690B001B39FC001A39F700D811D1124911D32
S11326A0B29F700D811D1124911D0895AA1BBB1B9F
S11326B051E107C0AA1FBB1FA617B70710F0A61B3E
S11326C0B70B881F991F5A95A9F780959095BC015F
S10B26D0CD010895F894FFCF39
S11326D83132334134353642373839432A3023448A
S11326E8456E7465722041444D494E207573657278
S11326F86E616D653A2000456E7465722041444DE3
S1132708494E2070617373776F72643A20004144B4
S11327184D494E204C4F4747454420494E210045DA
S11327284E54455220412056414C49442055534566
S1132738524E414D4521200020546F6F206D616E2B
S113274879206661696C656420617474656D707460
S1132758732120416C61726D2061637469766174C0
S113276865642E20005365742061646D696E20557C
S11327787365726E616D653A2000536574206164F7
S11327886D696E2050617373776F72643A200041EB
S1132798444D494E205245474953544552454421D6
S11327A8200041444D494E205349474E45442D5538
S11327B850210041444D494E204D4F44452E00318F
S11327C82D41444D494E205349474E2055502032FF
S11327D82D41444D494E204C4F4720494E3A200044
S11327E843686F6F736520616E206F7074696F6ED4
S11327F821200055534552204C494D4954205245F7
S11328084143484544210052454D4F5645205553B0
S113281845525320544F20414444204D4F52452E95
S11328280053657420557365722773205573657258
S11328386E616D653A20005365742055736572277F
S1132848732050617373776F72643A20005553454F
S11328585220414444454420535543434553534629
S1132868554C4C592E00456E74657220757365720B
S11328786E616D653A20004E4F20555345525320E2
S113288841444445442E00555345522052454D4F2A
S1132898564544205355434345535346554C4C5988
S11328A821005553455220444F4553204E4F542040
S11328B845584953542100526F6F6D31206C696734
S11328C86874206368616E67656421200020526F14
S11328D86F6D2032206C69676874206368616E6765
S11328E86564212000204C6976696E6720726F6FD9
S11328F86D206C69676874206368616E676564211C
S11329082000204B69746368656E206C696768747D
S1132918206368616E6765642120002042617468E1
S1132928726F6F6D206C69676874206368616E6785
S113293865642120002044696D6D696E67204C61CF
S11329486D7020496E74656E73697479204368618B
S11329586E676564212000446F6F72206973206F6D
S113296870656E00446F6F7220697320636C6F73B7
S11329786564004143204F46462100204143204FCF
S11329884E212000312D4C49474854205359535463
S1132998454D2020322D44494D4D494E47204C4148
S11329A84D502000332D414320436F6E74726F6C79
S11329B820342D446F6F7220436F6E74726F6C00F5
S11329C8352D41444420557365722020362D5245D7
S11329D84D4F5645205573657200372D4261636B20
S11329E820746F2055534552204D4F444500312DD6
S11329F8524F4F4D312020322D524F4F4D3220200F
S1132A0800332D4C4956494E4720524F4F4D2020F4
S1132A18342D4B49544348454E00352D42415448C2
S1132A28524F4F4D202000496E7365727420496ED1
S1132A3874656E736974792046726F6D20312074E1
S1132A486F20353A00312D4F70656E20646F6F72B8
S1132A5820322D436C6F736520646F6F7200506C65
S1132A686561736520696E7365727420612076618F
S1132A786C696420696E7075743A0057656C636F8D
S1132A886D6520746F20796F757220736D6172742F
S1132A9820686F6D652100312D41444D494E204D0C
S1132AA84F44452020322D55534552204D4F44451F
S1132AB80057454C434F4D4500312D41444D494E37
S1132AC8204D4F444500496E76616C6964206F70EF
S1132AD874696F6E0055534552204D454E552E006E
S1132AE8312D4C494748542053595354454D2000DF
S1132AF8322D44494D4D494E47204C4947485400CE
S1132B08332D414320434F4E54524F4C00312D52E4
S1132B184F4F4D3120322D524F4F4D32202000332C
S1132B282D4C4956494E4720524F4F4D2000352DC4
S1132B3842415448524F4F4D2000496E76616C69AA
S1132B486420526F6F6D00496E7365727420696EEC
S1132B5874656E736974793A00506C6561736520A5
S1132B68696E7365727400332D414320436F6E742C
S1132B78726F6C20342D4C4F47204F555400506CC5
S1132B886561736520696E73657274207468652065
S1132B986C756D696E6174696F6E20696E74656EAB
S1132BA8736974793A004E6F207573657273207275
S1132BB8656769737465726564210043686F6F7330
S1132BC865206D6F64653A2000312D426C7565741B
S1132BD86F6F746820322D4B6579706164200045ED
S1132BE86E74657220555345524E414D453A200046
S1132BF8456E74657220555345524E414D453A0011
S1132C08456E7465722050415353574F52443A20CD
S1132C1800456E7465722050415353574F52443ADD
S1132C2800496E76616C696420696E7075742E2033
S1132C380020747269616C73206C6566742E004997
S1132C486E76616C696420696E70757400207472A4
S1132C5869616C73206C6566740055736572206CC9
S1132C686F6767656420696E207375636365737342
S1132C7866756C6C79210055736572206C6F676793
S1132C88656420696E21004163636573732064651C
S1132C986E6965642E00416C61726D207472696797
S1132CA867657265642064756520746F20746F6F3E
S1132CB8206D616E79206661696C65642061747445
S1132CC8656D7074732E00546F6F206D616E79207A
S1132CD86661696C65640020617474656D707473F1
S1132CE82100416C61726D20747269676765726551
S1072CF8642E000042
S9030000FC
